:020000040800F2
:10000000005000207B0200087502000875020008FD
:1000100075020008750200080000000000000000E2
:100020000000000000000000000000007502000851
:100030007502000800000000750200087502000843
:1000400000000000000000000000000000000000B0
:1000500000000000000000000000000000000000A0
:100060000000000000000000000000000000000090
:100070000000000000000000000000000000000080
:100080000000000000000000000000000000000070
:100090000000000000000000000000000000000060
:1000A0000000000000000000000000000000000050
:1000B0000000000000000000000000000000000040
:1000C0000000000000000000000000000000000030
:1000D0000000000000000000000000000000000020
:1000E0000000000000000000000000000000000010
:1000F0000000000000000000000000000000000000
:1001000000000000000000000000000000000000EF
:1001100000000000000000000000000000000000DF
:1001200000000000000000000000000000000000CF
:1001300000000000000000000000000000000000BF
:1001400000000000000000000000000000000000AF
:10015000000000000000000000000000000000009F
:10016000000000000000000000000000000000008F
:10017000000000000000000000000000000000007F
:10018000000000000000000000000000000000006F
:10019000000000000000000000000000000000005F
:1001A000000000000000000000000000000000004F
:1001B000000000000000000000000000000000003F
:0801C000000000000000000037
:1001C80080B582B000AF0B4B1B680A4A43F010039E
:1001D800136000F013F800F02DF800F039F8002350
:1001E8007B6002E07B6801337B607B68024A934254
:1001F800F8D9F2E7181002403F420F0080B400AF70
:10020800044B1B68034A43F44013136000BFBD4608
:1002180080BC70470410014080B400AF044B1B68D9
:10022800034A43F40053136000BFBD4680BC7047C7
:100238000C10014080B400AF044B1B68034A23F440
:100248000053136000BFBD4680BC70470C100140CE
:1002580080B400AF044B1B68034A83F40053136057
:1002680000BFBD4680BC70470C10014080B400AF91
:10027800FEE780B588B000AF1A4A1B4BD31A7B61E2
:100288001A4B3B61184BFB600023FB610AE03A699B
:10029800FB691A44F968FB690B4412781A70FB6908
:1002A8000133FB61FA697B699A42F0D3104A114B1A
:1002B800D31ABB600F4B7B600023BB6107E07A68F1
:1002C800BB69134400221A70BB690133BB61BA6968
:1002D800BB689A42F3D3FFF773FF00BF2037BD46D0
:1002E80080BD00BF000000200000002000030008BF
:0802F8000000002000000020BE
:04000005080001C826
:00000001FF
